:06000000020E3A02006B43
:03000B0002006B85
:0300130002006B7D
:03001B0002006B75
:0300230002006B6D
:03002B0002006B65
:0300330002006B5D
:03003B0002006B55
:0300430002006B4D
:03004B0002006B45
:0300530002006B3D
:03005B0002006B35
:0300630002006B2D
:01006B003262
:1000800002006B0002006B0002006B0002006B00BC
:1000900002006B0002006B0002006B0002006B00AC
:1000A00002006B0002006B0002006B0002006B009C
:0800B00002006B0002006B006E
:1001000002006B0002006B0002006B0002006B003B
:1001100002006B0002006B0002006B0002006B002B
:1001200002006B0002006B0002006B0002006B001B
:1001300002006B0002006B0002006B0002006B000B
:1001400002006B0002006B0002006B0002006B00FB
:1001500002006B0002006B0002006B0002006B00EB
:1001600002006B0002006B0002006B0002006B00DB
:1001700002006B0002006B0002006B0002006B00CB
:030E4000020E4659
:030E5900020E4343
:030E430002048B1B
:10018000C200E4F508F509F50AD201750B00750CFB
:100190000012064612064375CB6375CAC0758E0001
:1001A00075C804D2AFD2B0D2B190E6047480F0002A
:1001B00090E60B7403F00090E61074A0F00090E657
:1001C0001174A0F00090E618E4F00090E6047402C8
:1001D000F00090E61274A2F00090E619E4F00090AE
:1001E000E6047404F00090E61374A0F00090E61AA0
:1001F000E4F00090E6047406F00090E61474E2F077
:100200000090E61BE4F00090E6047408F00090E62D
:100210001574E0F00090E604E4F00090E60BE4F0E2
:10022000000090E6917480F00090E6957480F000F4
:1002300090E6917480F00090E6957480F022AF8291
:10024000850C827583E0EFF0AF0C0F8F0C0509E48D
:10025000B50902050A222000012212064290E6A2F8
:10026000E030E1030202ECE509450A60677EC07FE9
:10027000E78F9D759EC090E67C7431F07460F0AE9F
:1002800009AF0AC3743E9EE49F50107D3EEE24C227
:10029000FEEF34FFFF8E098F0A8007AD09E4F509F0
:1002A000F50A8D077C007EE08E9A850B9B8D068E6D
:1002B000051EED601090E67BE090E67CF07C007D12
:1002C000E08D9A80EA859B0B0090E68F74022FF0F8
:1002D000D2CF801830CF1590E7C07431F090E7C1CD
:1002E0007460F00090E68F7402F0C2CFE5AA30E0AF
:1002F0000122C3E50994C1E50A940040012290E679
:1003000090E0FE7F0090E691E07C004207EC420620
:100310008F0D8E0E7C007DF08D9A759B007C007D8C
:1003200000C3EC950DED950E40030203FCE508704B
:10033000030203B8E50DC39CFAE50E9DFBA80879FE
:1003400000C3E89AE99B5004880289038A01E50802
:10035000C399F508EA2CFCEB3DFD30012C8A008B9B
:10036000018806890718B8FF0119EE4F60B390E6BF
:100370007BE0F582C005C004C001C0001206C0D0F9
:1003800000D001D004D00580D88A068B078E028F5A
:10039000031EBEFF011FEA4B608790E67BE0F582FB
:1003A000C007C006C005C0041206FD12023ED004FC
:1003B000D005D006D00780D590E67BE0FF232354FC
:1003C00001FEB401009201EF30E707743F5FF508CA
:1003D000802230010F8F82C005C004120664D00451
:1003E000D00580108F82C005C0041206AE12023EF6
:1003F000D004D0050CBC00010D0203210090E69151
:100400007480F02290E6B8E020E70C90E6B9E07046
:1004100002D2007582012290E6B9E0FFBF903090D1
:10042000E6BCE025E0547FFF2400F582E43418F5B3
:1004300083E090E740F07E000FBF00010EEF240044
:10044000F582EE3418F583E0FF90E741F0800C90E0
:10045000E7407436F090E7417483F090E68AE4F068
:1004600090E6BEE0FFBF0200500990E6BEE0FE7FCE
:100470000080047E027F0090E68BEEF07582012200
:1004800030020312098612025680F5C2AF120180B3
:100490001204E8120D651208EDD2AF1207FD020436
:0104A00080DB
:10E100001201100100000040C016AD06040001021B
:10E1100003010A061001FFFFFF4001000902200071
:10E12000010100804B0904000002FFFFFF02070508
:10E1300081024000000705020240000012011001A8
:10E1400000000040C016AD060400010203010A06EB
:10E150001001FFFFFF4001000902200001010080C3
:10E160004B0904000002FFFFFF0207058102400087
:10E1700000070502024000000482E186E194E1AC60
:01E18000E1BD
:10E18200040309040E03690078006F002E00640086
:10E19200650018035500530042002D004A00540048
:10E1A200410047002D004900460012036800770035
:0CE1B2005F006200610073006900630000
:1004A100AF8274FE550FFEB50F02802A8F048C05B2
:1004B100E4FC6210ED6211EE2400F582E43418F5DB
:1004C10083E0FE7D006210ED6211E51033C511334A
:1004D100C51192E0F510AE0F050FEE2400F582E490
:1004E1003418F583EFF022750F007510AA7511AA63
:1004F1007582001204A17582001204A17F00EF240D
:1005010008F582E434E1F583E0F582C0071204A125
:10051100D0070FBF060040E67F00EF2423F582E4F9
:1005210034E1F583E0F582C0071204A1D0070FBFC3
:10053100020040E675821C1204A17582001204A11A
:100541007F00EF2402F582E434E1F583E0F582C017
:10055100071204A1D0070FBF020040E6AF0F748657
:100561002FFFF582C0071204A190E186E0F5821207
:1005710004A1D00790E186E02FFEF582C0061204A7
:10058100A190E194E0F5821204A1D00690E194E0FB
:100591002EF5821204A190E1ACE0F5821204A17F54
:1005A1000090E186E0FEC3EF9E5017EF2486F582AE
:1005B100E434E1F583E0F582C0071204A1D0070F0E
:1005C10080DF7F0090E194E0FEC3EF9E5017EF249F
:1005D10094F582E434E1F583E0F582C0071204A1C9
:1005E100D0070F80DF7F0090E1ACE0FEC3EF9E50AB
:1005F10017EF24ACF582E434E1F583E0F582C0071E
:100601001204A1D0070F80DF7F00EF240EF582E4F2
:1006110034E1F583E0F582C0071204A1D0070FBFD2
:10062100040040E67482250F40087582001204A17F
:1006310080F2AF1090187EEFF0AF1190187FEFF0BD
:10064100222222222290E6007412F090E60174E048
:10065100F075B11F75B61F9001F4120E22E5B47545
:10066100B40022E582FF20E505E5B475B400EF543E
:100671000124FF92A2EF03540124FF92A3EF03038D
:10068100540124FF92A5EFA2E3E43324FF92A4EFE7
:10069100C4540124FF92A0EFA2E5E43324FF92A702
:1006A100EF30E50874BD55B444BDF5B422120664BB
:1006B100A2A6E43325E0FFA2A1E4334FF58222E5AF
:1006C100821392A0D2A213C2A292A0D2A213C2A25A
:1006D10092A0D2A213C2A292A0D2A213C2A292A0AD
:1006E100D2A213C2A292A0D2A213C2A292A0D2A25B
:1006F10013C2A292A0D2A200C2A22222AF8230A42F
:10070100058F8202070C8F8202075AE582A2A1138C
:1007110092A0D2A2C2A2A2A11392A0D2A2C2A2A2CC
:10072100A11392A0D2A2C2A2A2A11392A0D2A2C24C
:10073100A2A2A11392A0D2A2C2A2A2A11392A0D25C
:10074100A2C2A2A2A11392A0D2A2C2A2A2A113925A
:10075100A0D2A2C2A2F5822222E582A2A61392A071
:10076100D2A2C2A2A2A61392A0D2A2C2A2A2A613F0
:1007710092A0D2A2C2A2A2A61392A0D2A2C2A2A267
:10078100A61392A0D2A2C2A2A2A61392A0D2A2C2E2
:10079100A2A2A61392A0D2A2C2A2A2A61392A0D2F2
:1007A100A2C2A2F58222227880E84400600C79017D
:1007B100901800E4F0A3D8FCD9FAD083D082F6D8FF
:1007C100FDC082C0837582002290E6A0E043E00173
:1007D100F022AF828F05530580E4C423CDC4235496
:1007E1001F6DCD541FCD6DCD30E40244E053070F92
:1007F10090E683EF4DF0E043E020F02290E680E0C8
:1008010043E00AF09000FA120E2290E65D74FFF0C8
:1008110090E65FF05391EF90E680E053E0F7F0222D
:060E5300E478FFF6D8FD73
:060E3A00751200751300A3
:1008210090E680E030E7197514007515E175161230
:100831007517E175181C7519E1751A58751BE122B8
:1008410075143C7515E175164E7517E175185875D7
:1008510019E1751A1C751BE1225391EF75A100D2A4
:100861000232C021C0E0C0F0C082C083C007C00610
:10087100C005C004C003C002C001C000C0D075D013
:10088100005391EF75A100120821D0D0D000D00102
:10089100D002D003D004D005D006D007D083D082B7
:1008A100D0F0D0E0D02132C021C0E0C0F0C082C081
:1008B10083C007C006C005C004C003C002C001C098
:1008C10000C0D075D0005391EF75A100120821D05E
:1008D100D0D000D001D002D003D004D005D006D0B2
:1008E10007D083D082D0F0D0E0D021321208217518
:1008F1001C5A751D08758200120CBE751C63751D8E
:1009010008758210120CBE751CA8751D087582141D
:10091100120CBE90E65C7431F022E582547FFF2414
:10092100F7500475820022BF01047582012253072A
:10093100017E00E4BF0004BE000104F58222AF8203
:10094100BF010C90E6A1E0FE7D008E828D8322BF67
:10095100810C90E6A2E0FE7D008E828D83225307FA
:100961007FEF700C90E6A0E0FE7D008E828D8322E9
:1009710090E6A3E0FE7D00EFC3137C002EFEEC3D6C
:100981008E82F58322C20290E6B57401F090E6B83A
:10099100E0FF5307608F06BE00028028BF2002805F
:1009A1000DBF4002800EBF60028003020C48120797
:1009B100CA020C48120404E5826003020C481207C3
:1009C100CA020C4890E6B8E0FF530780BF8002805E
:1009D10003020B4D90E6B9E0FFBF0003020AC4BF5A
:1009E10006028033BF08028008BF0A028016020B8C
:1009F1004790E740E512F090E68AE4F090E68B0438
:100A0100F0020C4890E740E513F090E68AE4F0909C
:100A1100E68B04F0020C4890E6BBE0FFBF010280C8
:100A210017BF02028036BF03028055BF0602801A3B
:100A3100BF07028039020ABEAE14AF1590E6B3EFCC
:100A4100F090E6B4E514F0020C48AE16AF1790E64C
:100A5100B3EFF090E6B4E516F0020C48AE18AF190A
:100A610090E6B3EFF090E6B4E518F0020C48AE1A48
:100A7100AF1B90E6B3EFF090E6B4E51AF0020C4834
:100A810090E6BAE0FF90E178E0FEC3EF9E400612E7
:100A910007CA020C4890E6BAE075F002A42479F581
:100AA1008274E135F0F583E0FEA3E0FF8E048F054B
:100AB10090E6B3EDF090E6B4EEF0020C481207CAEE
:100AC100020C4890E6B8E0FF53071F8F06BE0002F4
:100AD100800ABE0102801BBF0266802C90E740E4C1
:100AE100F090E741F090E68AF090E68B7402F00214
:100AF1000C4890E740E4F090E741F090E68AF090EE
:100B0100E68B7402F0020C4890E6BCE0F582120913
:100B11001BE582602590E6BCE0F58212093FE0FF0B
:100B210053070190E740EFF090E741E4F090E68A47
:100B3100F090E68B7402F0020C481207CA020C48CE
:100B41001207CA020C481207CA020C4890E6B9E023
:100B5100FF24F45003020C45EF240A83F582EF24AD
:100B61001083F583E47345910EEF45454545457F77
:100B710045880C0B0C0B0C0C0C0C0C0B0C0B90E6A5
:100B8100BAE0F512020C4890E6BAE0F513020C48FF
:100B910090E6B8E0FF53071F8F06BE00028005BF35
:100BA1000247800A90E6BAE01207CA020C4890E6B2
:100BB100BAE0703090E6BCE0F58212091BE5826074
:100BC1002390E6BCE0F58212093FAE82AF83E0FDDF
:100BD1005305FE8E828F83EDF090E6BCE0F5821224
:100BE10007D380631207CA805E1207CA805990E654
:100BF100B8E0FF53071FBF004E90E6BAE0FFBF0108
:100C0100028005BF0202803F1207CA803A90E6BA0D
:100C1100E0702C90E6BCE0F58212091BE582601AB7
:100C210090E6BCE0F58212093FAE82AF83E0FD435E
:100C310005018E828F83EDF0800D1207CA800812A4
:100C410007CA80031207CA90E6A0E043E080F022C1
:100C5100AF82BF03004005EF249C5001228F057E27
:100C610000740F5DFB7C00BB0305BC0002800C74AB
:100C71000F5DFB7C00BB0B44BC0041A2AFE433FC25
:100C8100C2AFEF2400F582E43400F5837402F0145E
:100C91002DFBE43EFFEB2400F582EF3400F583E504
:100CA1001DF074022DFDE43EFEED2400F582EE34CC
:100CB10000F583E51CFFF0EC24FF92AF22E582FFF3
:100CC1002483500122EF5403600122A2AFE433FEDA
:100CD100C2AFEF2400F582E43401F5837402F07DA4
:100CE10000142FFBE43DFCEB2400F582EC3401F50C
:100CF10083E51DF074022FFFE43DFDEF2400F58232
:100D0100ED3401F583E51CF0EE24FF92AF22AF82B2
:100D1100BF80004005EF244B500122EF54036001D6
:100D210022A2AFE433FEC2AFEF2480F582E43400A7
:100D3100F5837402F07D00142FFBE43DFCEB24806D
:100D4100F582EC3400F583E51DF074022FFFE43DDC
:100D5100FDEF2480F582ED3400F583E51CF0EE24EF
:100D6100FF92AF22C2E8C2EA751C00751D017582AF
:100D710043120C51751C80751D00758253120C5164
:100D81000090E650E4F00090E652E4F00090E65462
:100D9100E4F00090E656E4F00090E65174FFF000B4
:100DA10090E65374FFF00090E65574FFF00090E672
:100DB1005774FFF00090E658E4F090E65914F09073
:100DC100E65AE4F090E65B14F090E65CE4F090E61D
:100DD1005D14F090E65EE4F090E65F14F00090E6BA
:100DE10060E4F00090E66174FFF090E662E4F09058
:100DF100E66314F090E665E4F090E668740BF05356
:100E010091EF5391BFD2E8D2EA2222AF82120E0BA8
:100E1100EF14FF70F82290FB50A3E582458370F92F
:100E210022AE82AF83120E17EE24FFFCEF34FFFDDA
:090E31008C068D07EC4D70ED22DA
:0D0E46007581211207A8E5826003020E43AA
:00000001FF
