:06000000020EA102006BDC
:03000B0002006B85
:0300130002006B7D
:03001B0002006B75
:0300230002006B6D
:03002B0002006B65
:0300330002006B5D
:03003B0002006B55
:0300430002006B4D
:03004B0002006B45
:0300530002006B3D
:03005B0002006B35
:0300630002006B2D
:01006B003262
:1000800002006B0002006B0002006B0002006B00BC
:1000900002006B0002006B0002006B0002006B00AC
:1000A00002006B0002006B0002006B0002006B009C
:0800B00002006B0002006B006E
:1001000002006B0002006B0002006B0002006B003B
:1001100002006B0002006B0002006B0002006B002B
:1001200002006B0002006B0002006B0002006B001B
:1001300002006B0002006B0002006B0002006B000B
:1001400002006B0002006B0002006B0002006B00FB
:1001500002006B0002006B0002006B0002006B00EB
:1001600002006B0002006B0002006B0002006B00DB
:1001700002006B0002006B0002006B0002006B00CB
:030EA700020EAD8B
:030EC000020EAA75
:030EAA0002048BB4
:10018000C200E4F508F509F50AD201750B00750CFB
:100190000012064612064375CB6375CAC0758E0001
:1001A00075C804D2AFD2B0D2B190E6047480F0002A
:1001B00090E60B7403F00090E61074A0F00090E657
:1001C0001174A0F00090E618E4F00090E6047402C8
:1001D000F00090E61274A2F00090E619E4F00090AE
:1001E000E6047404F00090E61374A0F00090E61AA0
:1001F000E4F00090E6047406F00090E61474E2F077
:100200000090E61BE4F00090E6047408F00090E62D
:100210001574E0F00090E604E4F00090E60BE4F0E2
:10022000000090E6917480F00090E6957480F000F4
:1002300090E6917480F00090E6957480F022AF8291
:10024000850C827583E0EFF0AF0C0F8F0C0509E48D
:10025000B50902050A222000012212064290E6A2F8
:10026000E030E1030202ECE509450A60677EC07FE9
:10027000E78F9D759EC090E67C7431F07460F0AE9F
:1002800009AF0AC3743E9EE49F50107D3EEE24C227
:10029000FEEF34FFFF8E098F0A8007AD09E4F509F0
:1002A000F50A8D077C007EE08E9A850B9B8D068E6D
:1002B000051EED601090E67BE090E67CF07C007D12
:1002C000E08D9A80EA859B0B0090E68F74022FF0F8
:1002D000D2CF801830CF1590E7C07431F090E7C1CD
:1002E0007460F00090E68F7402F0C2CFE5AA30E0AF
:1002F0000122C3E50994C1E50A940040012290E679
:1003000090E0FE7F0090E691E07C004207EC420620
:100310008F0D8E0E7C007DF08D9A759B007C007D8C
:1003200000C3EC950DED950E40030203FCE508704B
:10033000030203B8E50DC39CFAE50E9DFBA80879FE
:1003400000C3E89AE99B5004880289038A01E50802
:10035000C399F508EA2CFCEB3DFD30012C8A008B9B
:10036000018806890718B8FF0119EE4F60B390E6BF
:100370007BE0F582C005C004C001C00012075CD05C
:1003800000D001D004D00580D88A068B078E028F5A
:10039000031EBEFF011FEA4B608790E67BE0F582FB
:1003A000C007C006C005C0041207A612023ED00452
:1003B000D005D006D00780D590E67BE0FF232354FC
:1003C00001FEB401009201EF30E707743F5FF508CA
:1003D000802230010F8F82C005C0041206DFD004D6
:1003E000D00580108F82C005C00412073D12023E66
:1003F000D004D0050CBC00010D0203210090E69151
:100400007480F02290E6B8E020E70C90E6B9E07046
:1004100002D2007582012290E6B9E0FFBF903090D1
:10042000E6BCE025E0547FFF2400F582E43418F5B3
:1004300083E090E740F07E000FBF00010EEF240044
:10044000F582EE3418F583E0FF90E741F0800C90E0
:10045000E7407436F090E7417483F090E68AE4F068
:1004600090E6BEE0FFBF0200500990E6BEE0FE7FCE
:100470000080047E027F0090E68BEEF07582012200
:100480003002031209ED12025680F5C2AF1201804C
:100490001204E8120DCC120954D2AF1208640204FF
:0104A00080DB
:10E100001201100100000040C016AD06040001021B
:10E1100003010A061001FFFFFF4001000902200071
:10E12000010100804B0904000002FFFFFF02070508
:10E1300081024000000705020240000012011001A8
:10E1400000000040C016AD060400010203010A06EB
:10E150001001FFFFFF4001000902200001010080C3
:10E160004B0904000002FFFFFF0207058102400087
:10E1700000070502024000000482E186E194E1AC60
:01E18000E1BD
:10E18200040309040E03690078006F002E00640086
:10E19200650018035500530042002D004A00540048
:10E1A200410047002D004900460014036800770033
:0EE1B2005F0078007000630075005F00780069
:1004A100AF8274FE550FFEB50F02802A8F048C05B2
:1004B100E4FC6210ED6211EE2400F582E43418F5DB
:1004C10083E0FE7D006210ED6211E51033C511334A
:1004D100C51192E0F510AE0F050FEE2400F582E490
:1004E1003418F583EFF022750F007510AA7511AA63
:1004F1007582001204A17582001204A17F00EF240D
:1005010008F582E434E1F583E0F582C0071204A125
:10051100D0070FBF060040E67F00EF2423F582E4F9
:1005210034E1F583E0F582C0071204A1D0070FBFC3
:10053100020040E675821C1204A17582001204A11A
:100541007F00EF2402F582E434E1F583E0F582C017
:10055100071204A1D0070FBF020040E6AF0F748657
:100561002FFFF582C0071204A190E186E0F5821207
:1005710004A1D00790E186E02FFEF582C0061204A7
:10058100A190E194E0F5821204A1D00690E194E0FB
:100591002EF5821204A190E1ACE0F5821204A17F54
:1005A1000090E186E0FEC3EF9E5017EF2486F582AE
:1005B100E434E1F583E0F582C0071204A1D0070F0E
:1005C10080DF7F0090E194E0FEC3EF9E5017EF249F
:1005D10094F582E434E1F583E0F582C0071204A1C9
:1005E100D0070F80DF7F0090E1ACE0FEC3EF9E50AB
:1005F10017EF24ACF582E434E1F583E0F582C0071E
:100601001204A1D0070F80DF7F00EF240EF582E4F2
:1006110034E1F583E0F582C0071204A1D0070FBFD2
:10062100040040E67482250F40087582001204A17F
:1006310080F2AF1090187EEFF0AF1190187FEFF0BD
:10064100222222222290E6007412F090E60174E246
:10065100F090E670E4F075B2FB75802090E671F0E1
:1006610075B4FF75A01090E672F075B6FC75B1C057
:1006710090E6F514F090E6F374A0F090E6C3E4F090
:1006810090E6C1F090E6C2F090E6C004F075AF07C5
:100691007EC37F0E8F9A759BC3759DE4759E007F07
:1006A1000090E67BE090E67CF00FBF400040F20056
:1006B10090E6C4E4F00090E6C5E4F090E6C6F09060
:1006C100E6C7F090E6C8F090E6C9F090E6CAF0906F
:1006D100E6CBF090E6CCF090E6CDF0F51222E58283
:1006E100FF30E0067D407E0080047D007E008D129B
:1006F100EF30E1067D207E0080047D007E00AC129B
:10070100ED4CF512EF30E4067D107E0080047D0093
:100711007E00AC12ED4CF51275A081E5BB30E7FB14
:1007210090E6F1E512F0EF30E60974FC55804401E2
:10073100F5802274FC55804402F580221206DF7593
:10074100A041E5BB30E7FB90E6F1E0E5BB30E7FB1C
:1007510090E6F2E054014402F58222AF8274AF5573
:1007610012FE75A0817D0174104EFC7B00BB080058
:1007710050308E02ED5F60028C02E5BB30E7FB90EA
:10078100E6F1EAF0E5BB30E7FB90E6F174404AF0B0
:100791008D01E929FDE5BB30E7FB90E6F1EAF00BBD
:1007A10080CB8E1222AF8274AF5512FE7D017C0088
:1007B10074104EFB7A00BA0800504E75A041E5BB9B
:1007C10030E7FB90E6F1E0E5BB30E7FB90E6F2E0D5
:1007D10030E003ED420475A0818E01ED5F60028B74
:1007E10001E5BB30E7FB90E6F1E9F0E5BB30E7FB63
:1007F10090E6F1744049F08D00E828FDE5BB30E753
:0E080100FB90E6F1E9F00A80AD8E128C8222A7
:100EC300040404032A0403070602020203020202C3
:100ED3000100030202030202000000000000003FC1
:100EE30004040404033304070000000000010200AB
:100EF3000100030203030202000000000000003FA0
:10080F007880E84400600C7901901800E4F0A3D8D8
:10081F00FCD9FAD083D082F6D8FDC082C08375820E
:10082F00002290E6A0E043E001F022AF828F055353
:10083F000580E4C423CDC423541F6DCD541FCD6D4B
:10084F00CD30E40244E053070F90E683EF4DF0E024
:10085F0043E020F02290E680E043E00AF09000FAB7
:10086F00120E8990E65D74FFF090E65FF05391EF02
:09087F0090E680E053E0F7F0225E
:060EBA00E478FFF6D8FD0C
:060EA1007513007514003A
:1008880090E680E030E7197515007516E1751712C6
:100898007518E175191C751AE1751B58751CE1224C
:1008A80075153C7516E175174E7518E1751958756B
:1008B8001AE1751B1C751CE1225391EF75A100D23A
:1008C8000232C021C0E0C0F0C082C083C007C006A9
:1008D800C005C004C003C002C001C000C0D075D0AC
:1008E800005391EF75A100120888D0D0D000D00134
:1008F800D002D003D004D005D006D007D083D08250
:10090800D0F0D0E0D02132C021C0E0C0F0C082C019
:1009180083C007C006C005C004C003C002C001C030
:1009280000C0D075D0005391EF75A100120888D08F
:10093800D0D000D001D002D003D004D005D006D04A
:1009480007D083D082D0F0D0E0D021321208887549
:100958001DC1751E08758200120D25751DCA751EEC
:1009680008758210120D25751D0F751E09758214E4
:10097800120D2590E65C7431F022E582547FFF2445
:10098800F7500475820022BF0104758201225307C3
:10099800017E00E4BF0004BE000104F58222AF829C
:1009A800BF010C90E6A1E0FE7D008E828D8322BF00
:1009B800810C90E6A2E0FE7D008E828D8322530793
:1009C8007FEF700C90E6A0E0FE7D008E828D832282
:1009D80090E6A3E0FE7D00EFC3137C002EFEEC3D05
:1009E8008E82F58322C20290E6B57401F090E6B8D3
:1009F800E0FF5307608F06BE00028028BF200280F8
:100A08000DBF4002800EBF60028003020CAF1208C7
:100A180031020CAF120404E5826003020CAF120825
:100A280031020CAF90E6B8E0FF530780BF80028028
:100A380003020BB490E6B9E0FFBF0003020B2BBF23
:100A480006028033BF08028008BF0A028016020B24
:100A5800AE90E740E513F090E68AE4F090E68B0468
:100A6800F0020CAF90E740E514F090E68AE4F090CD
:100A7800E68B04F0020CAF90E6BBE0FFBF010280FA
:100A880017BF02028036BF03028055BF0602801AD4
:100A9800BF07028039020B25AE15AF1690E6B3EFFB
:100AA800F090E6B4E515F0020CAFAE17AF1890E67B
:100AB800B3EFF090E6B4E517F0020CAFAE19AF1A39
:100AC80090E6B3EFF090E6B4E519F0020CAFAE1B78
:100AD800AF1C90E6B3EFF090E6B4E51BF0020CAF64
:100AE80090E6BAE0FF90E178E0FEC3EF9E40061280
:100AF8000831020CAF90E6BAE075F002A42479F54B
:100B08008274E135F0F583E0FEA3E0FF8E048F05E3
:100B180090E6B3EDF090E6B4EEF0020CAF120831B7
:100B2800020CAF90E6B8E0FF53071F8F06BE000225
:100B3800800ABE0102801BBF0266802C90E740E459
:100B4800F090E741F090E68AF090E68B7402F002AC
:100B58000CAF90E740E4F090E741F090E68AF0901F
:100B6800E68B7402F0020CAF90E6BCE0F582120945
:100B780082E582602590E6BCE0F5821209A6E0FFD6
:100B880053070190E740EFF090E741E4F090E68AE0
:100B9800F090E68B7402F0020CAF120831020CAF31
:100BA800120831020CAF120831020CAF90E6B9E01E
:100BB800FF24F45003020CACEF240A83F582EF24DF
:100BC8001083F583E473ACF87556ACACACACACE60A
:100BD800ACEF0C0B0C0C0C0C0C0C0C0B0C0B90E66F
:100BE800BAE0F513020CAF90E6BAE0F514020CAFC8
:100BF80090E6B8E0FF53071F8F06BE00028005BFCE
:100C08000247800A90E6BAE0120831020CAF90E67B
:100C1800BAE0703090E6BCE0F582120982E58260A5
:100C28002390E6BCE0F5821209A6AE82AF83E0FD10
:100C38005305FE8E828F83EDF090E6BCE0F58212BC
:100C4800083A8063120831805E120831805990E6B4
:100C5800B8E0FF53071FBF004E90E6BAE0FFBF01A0
:100C6800028005BF0202803F120831803A90E6BA3E
:100C7800E0702C90E6BCE0F582120982E582601AE9
:100C880090E6BCE0F5821209A6AE82AF83E0FD4390
:100C980005018E828F83EDF0800D120831800812D5
:100CA8000831800312083190E6A0E043E080F0228A
:100CB800AF82BF03004005EF249C5001228F057EC0
:100CC80000740F5DFB7C00BB0305BC0002800C7444
:100CD8000F5DFB7C00BB0B44BC0041A2AFE433FCBE
:100CE800C2AFEF2400F582E43400F5837402F014F7
:100CF8002DFBE43EFFEB2400F582EF3400F583E59D
:100D08001EF074022DFDE43EFEED2400F582EE3463
:100D180000F583E51DFFF0EC24FF92AF22E582FF8A
:100D28002483500122EF5403600122A2AFE433FE72
:100D3800C2AFEF2400F582E43401F5837402F07D3C
:100D480000142FFBE43DFCEB2400F582EC3401F5A4
:100D580083E51EF074022FFFE43DFDEF2400F582C9
:100D6800ED3401F583E51DF0EE24FF92AF22AF824A
:100D7800BF80004005EF244B500122EF540360016F
:100D880022A2AFE433FEC2AFEF2480F582E4340040
:100D9800F5837402F07D00142FFBE43DFCEB248006
:100DA800F582EC3400F583E51EF074022FFFE43D74
:100DB800FDEF2480F582ED3400F583E51DF0EE2487
:100DC800FF92AF22C2E8C2EA751D00751E01758246
:100DD80043120CB8751D80751E00758253120CB82D
:100DE8000090E650E4F00090E652E4F00090E654FB
:100DF800E4F00090E656E4F00090E65174FFF0004D
:100E080090E65374FFF00090E65574FFF00090E60A
:100E18005774FFF00090E658E4F090E65914F0900B
:100E2800E65AE4F090E65B14F090E65CE4F090E6B5
:100E38005D14F090E65EE4F090E65F14F00090E652
:100E480060E4F00090E66174FFF090E662E4F090F0
:100E5800E66314F090E665E4F090E668740BF053EE
:100E680091EF5391BFD2E8D2EA2222AF82120E72DA
:100E7800EF14FF70F82290FB50A3E582458370F9C8
:100E880022AE82AF83120E7EEE24FFFCEF34FFFD0C
:090E98008C068D07EC4D70ED2273
:0D0EAD0075812112080FE5826003020EAA74
:00000001FF
