:04000000020059326F
:01000B0032C2
:0100130032BA
:01001B0032B2
:0100230032AA
:01002B0032A2
:01003300329A
:01003B003292
:03004300023F0079
:01004B003282
:03005300023F0069
:0300B200750D01C8
:0300C700020056DE
:030056000202742F
:2000CA00E582FF24F0500475823F22EF24F650088F0674572EF5822274302FF58222AF82CB
:2000EA007E00EF2FFFEE33FEEF2FFFEE33FEEF24D0FCEE343EFDE50AC4540FF582C007C0B0
:20010A0006C005C0041200CAAB82D004D005D006D0078C828D83EBF074022FFFE43EFEEF3B
:20012A0024D0FFEE343EFEE50A540FF582C007C0061200CAAD82D006D0078F828E83EDF057
:20014A0022750B00903ED07466F075470B7548007549407543F875440075450175460075B5
:20016A0082511208C1850B0A7582001200E875470B7548007549407543F975440075450195
:20018A007546007582511208C1850B0A7582011200E875470B7548007549407543FA7544FE
:2001AA00007545017546007582511208C1850B0A7582021200E875470B7548007549407518
:2001CA0043FB7544007545017546007582511208C1850B0A7582031200E875470B75480073
:2001EA007549407543FC7544007545017546007582511208C1850B0A7582041200E87547A6
:20020A000B7548007549407543FD7544007545017546007582511208C1850B0A758205125F
:20022A0000E875470B7548007549407543FE7544007545017546007582511208C1850B0AA8
:20024A007582061200E875470B7548007549407543FF7544007545017546007582511208D3
:20026A00C1850B0A7582070200E890E60BE4F0C200C20190E60B7403F090E680E043E00A6C
:20028A00F09005DC120E6290E680E053E0F7F090E600E054E74410F090E100E4F5F0120D53
:2002AA005E12014BD2E890E668E043E008F090E65CE043E001F090E65CE043E010F090E6D4
:2002CA005CE043E020F0D2AF3000FD120925C20080F675820022AF8290E6BBE0FD7E009019
:2002EA00E6BAE07B004206EB420590E6BFE0FB7C0090E6BEE07A004204EA42038F017A00E6
:20030A00C007C006C005C004C003C004C003C006C005C001C00274C8C0E07418C0E0748069
:20032A00C0E0120EE3E58124F7F581D003D004D005D006D00790E678E030E4047A518002BD
:20034A007A50BFB102800302044F90E6B8E0FFBF40028076BFC0028003020432EC4B700395
:20036A00020436C374409CE49B500679407F0080048C018B0790E6A0E020E1F989457546FB
:20038A00007547407548E77549008E438D448A82C006C005C004C003C002C0011208C1D007
:2003AA0001D002D003D004D005D00690E68AE4F00000000090E68BE9F07F00ECC399FCEBB2
:2003CA009FFBE92EFEEF3DFD8092EC4B605E90E68BE4F090E6A0E020E1F990E68BE0FF8F00
:2003EA0038753900753A40753BE7753C008E368D378A82C007C006C005C004C003C0021295
:20040A000831E582D002D003D004D005D006D0077003F582228F017F00E92EFEEF3DFDECF2
:20042A00C399FCEB9FFB80A27582002274F5C0E07418C0E07480C0E0120EE315811581158D
:20044A00817582012275820022AD1BAE1CAF1D8D828E838FF0E4120D2C75820122AE0C7F5F
:20046A0000C006C00774FDC0E07418C0E07480C0E0120EE3E58124FBF58175820122850D6A
:20048A008222AF828F057E00C007C005C006741EC0E07419C0E07480C0E0120EE3E5812499
:2004AA00FBF581D0078F0D75820122C0E0C082C083D2005391EF90E65D7401F0D083D0828D
:2004CA00D0E032C021C0E0C0F0C082C083C007C006C005C004C003C002C001C000C0D07559
:2004EA00D000758200120C235391EF90E65D7410F0D0D0D000D001D002D003D004D005D071
:20050A0006D007D083D082D0F0D0E0D02132C021C0E0C0F0C082C083C007C006C005C004F0
:20052A00C003C002C001C000C0D075D000758201120C235391EF90E65D7420F0D0D0D00003
:19054A00D001D002D003D004D005D006D007D083D082D0F0D0E0D0213294
:2018C80048616E646C652056656E646F7220436F6D6D616E6420253032782C206164647241
:2018E8002025642C206C656E2025640A00416C6C204F4B0A00486F73742077616E74732011
:20190800746F2073657420696E746572666163653A2025640A00686F73742077616E7473A7
:0D19280020636F6E6669673A2025640A002F
:203E000012010002FFFFFF40192A41540200010203010A060002FFFFFF40010009023C00D8
:203E200001010080320904000006FFFFFF000705010200020007058102000200070502020C
:203E400000020007050402000200070586020002000705880200020009023C000101008055
:203E6000320904000006FFFFFF00070501024000000705810240000007050202400000078B
:203E80000504024000000705860240000007058802400000040309040E034E0075006D00D8
:203EA000610074006F0028034F0070007300690073002000280045004500500052004F00C2
:203EC0004D0020004D006F0064006500290022033000310032003300340035003600370006
:123EE0003800390061006200630064006500660000000A
:2005630085822CE5272522FDE5283523FE752D02903C00E4F0903C00E06004758200229095
:20058300E678E043E080F090E678E030E21090000AC006C005120E62D005D00680D7E52CDD
:2005A30025E0FB90E679F090E678E020E006903C00E060F3903C00E060047582002290E6E7
:2005C30078E020E2B090E678E020E13B90E678E043E040F090E678E030E606903C00E060ED
:2005E300F3903C00E0600475820022E52D14FB8B2D7003F5822290000AC006C005120E6250
:20060300D005D0060205787A007B00C3EA9DEB9E400302069FC3EA9522EB95235016EA257F
:2006230024F8EB3525F9AC26888289838CF01217C7FC801DEAC39522F8EB9523F9E8252942
:20064300F8E9352AF9AF2B888289838FF01217C7FC90E679ECF00ABA00010B90E678E0207A
:20066300E006903C00E060F3903C00E060047582002290E678E030E20302057890E678E039
:2006830020E18890E678E043E040F090E678E030E606903C00E060F37582002290E678E0DD
:2006A30043E040F090E678E030E606903C00E060F3903C00E0600475820022758201228533
:2006C3008233903C00E4F004B52E0814B52F0474018001E4FE903C00E06004758200227C5A
:2006E300007D0090E678E043E080F090E678E030E20C90000AC006120E62D00680D7E53306
:2007030025E0FB90E67974014BF090E678E020E006903C00E060F3903C00E060047582005D
:200723002290E678E020E2AD90E678E020E11990E678E043E040F090E678E030E606903C58
:2007430000E060F375820022EE600890E678E043E020F090E679E0E4F534F535740125341F
:20076300F8E43535F9C3E8952EE9952F506590E678E020E006903C00E060F3903C00E06088
:20078300047582002290E678E030E2030206D874022534F8E43535F9E8B52E0CE9B52F08BC
:2007A30090E678E043E020F0A834A9350534E4B534020535AC34AD35E82530F8E93531F9FA
:2007C300AF3290E679E0FB888289838FF0120D2C02075F90E678E020E006903C00E060F350
:2007E300903C00E060047582002290E678E030E2030206D890E678E043E040F0EC2530FCAC
:20080300ED3531FDAF3290E679E08C828D838FF0120D2C90E678E030E606903C00E060F304
:20082300903C00E06004758200227582012285823DE4F541F542AB36AC37C3E5419538E57E
:2008430042953950757A0090E678E030E4067A018C078F3EEA04FFEA243EF98B02A702EF2C
:2008630004FAEF243EF9E541253AFDE542353BFEAF3C0541E4B5410205428D828E838FF023
:200883001217C7F78A2275230075243E752500752640E4F527F528F529F52AF52B853D8220
:2008A300C004C003120563E582D003D0047003F582220BBB00010C02083D75820122AF82B5
:2008C3007E0090E678E030E4067E01AD448D4AEE04FDEE244AF9AE43A7068D2275230075CA
:2008E300244A752500752640E4F527F528F529F52AF52B8F82C007120563E582D007700395
:20090300F5822285452E85462F8547308548318549328F821206C2E5827003F582227582FA
:020923000122AF
:06008800E478FFF6D8FD4C
:1200B500750F0075100075115875123E75131C75143E22
:2009250090E6B9E0FF24F45003020A25EF240A83F582EF241083F583E473576C25812525C9
:200945009625A6BDD40709090A090A0A090A0909090A120A9BE5826003020A3A90E6A0E06B
:2009650043E001F0020A3A120B2FE5826003020A3A90E6A0E043E001F0020A3A120B9EE5CC
:20098500826003020A3A90E6A0E043E001F0020A3A1202DCE5826003020A3A120C4D020A60
:2009A5003A120488AF8290E740EFF090E68AE4F090E68B04F0020A3A90E6BAE0F5821204E7
:2009C5008CE582707090E6A0E043E001F0806690E6BCE0FF751B0E751C00751D408F82121A
:2009E5000453E582700A90E6A0E043E001F0804590E740E50EF090E68AE4F090E68B04F088
:200A0500803390E6BCE0FF90E6BAE0F50C8F82120467E582701F90E6A0E043E001F08015D9
:200A250090E6B9E0F5821202E0E582700890E6A0E043E001F090E6A0E043E080F022AF8272
:200A4500747F5FFE24F75003020A97EE240A83F582EE240D83F583E473707487978B978FF6
:200A650097930A0A0A0A0A0A0A0A0A90E6A022EF30E7067EA27FE680047EA17FE68E828F7D
:200A8500832290E6A32290E6A42290E6A52290E6A6229000002290E6B8E0FFBF8002802218
:200AA500BF81028008BF82028037020B2790E740E4F090E741F090E68AF090E68B7402F0AF
:200AC5008064E51025E0FFE50F420790E740EFF090E741E4F090E68AF090E68B7402F080FE
:200AE5004590E6BCE0F582120A43AE82AF838E048F05EE4F7003F582228C828D83E0FC30C9
:200B0500E0067E017F0080047E007F0090E740EEF090E741E4F090E68AF090E68B7402F0F3
:200B25008004758200227582012290E6B8E0FF6005BF0258801B90E6BAE0FFBF010575107A
:200B450000805290E6BAE0FFBF060280487582002290E6BAE0703190E6BCE0F582120A436E
:200B6500AE82AF83E0FD5305FE8E828F83EDF090E6BCE0FF30E70343071053071F90E683E5
:200B8500EFF074204FF0800D7582002290E6B9E0F5820202E07582012290E6B8E0FF600502
:200BA500BF026E802690E6BAE0FFBF0203020C1F90E6BAE0FFBF0105751001805D90E6BAF4
:200BC500E0FFBF060280537582002290E6BAE0703C90E6BCE0F582120A43AE82AF83EE4F3B
:200BE5007003F582228E828F83E0FD4305018E828F83EDF090E6BCE0FF30E70343071053C5
:200C0500071F90E683EFF074204FF0800D7582002290E6B9E0F5820202E075820122D310F1
:200C2500AF01C3C0D0E582600E75111C75123E75135875143E800C75115875123E75131CF6
:200C450075143ED0D092AF2290E6B57401F090E6BBE0FFBF01028019BF02028024BF03029F
:200C6500802CBF0603020D06BF0703020D16020D237E007F3E90E6B3EFF090E6B47400F0F5
:200C85002290E6B3E512F090E6B4E511F0227D947E3E7F8090E6BAE0F51B7B00EBB51B02C7
:200CA50080430B8D008E018F028D828E838FF01217C728F8E439F9880589068A0774012DA0
:200CC500F9E43EFA8F0489828A838CF01217C7F9B9030280067D007E007F00ED4E6006C3C8
:200CE500E51B9B50B7ED4E600F8D038E0490E6B3ECF090E6B4EDF02290E6A0E043E001F049
:200D0500227E127F3E90E6B3EFF090E6B47412F02290E6B3E514F090E6B4E513F02290E6D9
:070D2500A0E043E001F02211
:200066007900E94400601B7A00901940780175923CE493F2A308B800020592D9F4DAF275C7
:0200860092FFE7
:1B0D2C0020F71130F6138883A88220F509F6A8837583002280FEF280F5F022C6
:203F00000204B5000218C600021855000218BF000204CD000205180002185200020D5200FF
:203F2000020D5400020D5500020D5600020D59000218C5000218C700020D4700020D49007F
:203F400002185700020D520002185100021853000218540002185600021858000218BE008F
:203F600002179100020D5200020D5200020D5200020D5300020D5700020D5A00020D5C00D8
:203F8000020D5800020D5B00020D5D00020EBA00020D4A00020D4C00020D4E00020D5000AA
:183FA000020D4B00020D4D00020D4F00020D5100020D48000218C40060
:010D47003279
:010D48003278
:010D49003277
:010D4A003276
:010D4B003275
:20008E007800E84400600A790075923CE4F309D8FC7801E84400600C7901903C00E4F0A306
:0400AE00D8FCD9FAA7
:010D4C003274
:010D4D003273
:010D4E003272
:010D4F003271
:010D50003270
:010D5100326F
:010D5200326E
:010D5300326D
:010D5400326C
:010D5500326B
:010D5600326A
:010D57003269
:010D58003268
:010D59003267
:010D5A003266
:010D5B003265
:010D5C003264
:010D5D003263
:200D5E00D310AF01C3C0D085821585831685F017F51890E600E05418C423541F70057A01B0
:200D7E00FB801C90E600E05418C423541FF9B901067802790080047804790088028903D295
:200D9E00CDD2CC8A1B751C00751D00751E009071B075F00BE4C0021217E385151B85161C30
:200DBE0085171D85181E121859AC82AD83AEF0FFD0020CBC00090DBD00050EBE00010FEFE6
:200DDE00C313EE13ED13FDEC13FC74FFC39CFC74FF9DFD8DCBEA60067E017F0080047E00A3
:200DFE007F00EE2CF5CAD2CAC29FD29EC29DD29C438780D299D0D092AF223098FDAF99C2BC
:200E1E00987E008F828E8322AF8210990280FB8F9922AE82AF83BE0A11BF000E75820DC0ED
:200E3E0007C006120E26D006D0078E82C007C006120E26D006D007BE0D09BF000675820AAA
:040E5E00020E262238
:200E6200AE82AF8390E600E05418C423541F70057CB1FD801C90E600E05418C423541FFBA0
:200E8200BB01067A617B0180047AC27B028A048B058C1B8D1CE51B24FFFAE51C34FFFB8AB6
:180EA2001B8B1CEA4B70EEEE24FFFAEF34FFFB8A068B07EA4B70DA22F8
:010EBA003205
:200EBB00C01A85811A7E008E83120E30D01A2285825C85835D85F05EE4F559F55AF55B8541
:200EDB00195F900EBB020FA9C01AE581F51A24FBFF8F5FE4F559F55AF55BE51A24FBF886A4
:100EFB005C08865D08865E900EBB120FA9D01A2285
:200F0B00AF82C04FC050C051120F188007C04DC04E8F82221581158115810557E4B5570247
:200F2B00055822AF8274302FFF24C6500B74072FFFE54C60034307208F82020F0BE582FFA5
:200F4B00C4540FF582C007120F2ED007740F5FF582020F2E85821BAB52AC53AD54AE55AA97
:200F6B0056751D208A07EF2FF51CEE235401451CFAEB2BFBEC33FCED33FDEE33FEC3EA9533
:200F8B001B4008EAC3951BFA430301E51D14FF8F1D70D18B528C538D548E558A56228582BA
:200FAB004D85834E85594F855A50855B51E4F557F558AD5CAE5DAF5E8D828E838FF0121790
:200FCB00C7FC74012DF55CE43EF55D8F5EECFF700302178ABF250280030217827E007D00EF
:200FEB008E608E617A007B008E627C008E63E4F56BF56C7564FF7565FF855C6D855D6E853E
:20100B005E6F856D82856E83856FF01217C7F570A385826D85836E856D5C856E5D856F5E58
:20102B007425B57008857082120F0B808574D0257040030210EBE57024C650030210EB741B
:20104B00FFB56455B56552856B1B856C1C90000AC006C005C004C003C0021217AA858271DB
:20106B00858372D002D003D004D005D006857073757400E5732571F573E5743572F574E5D2
:20108B007324D0F56BE57434FFF56CE56B456C600302100D7D0102100D85641B85651C90D7
:2010AB00000AC006C005C004C003C0021217AA858273858374D002D003D004D005D00685D5
:2010CB007071757200E5712573F573E5723574F574E57324D0F564E57434FFF56502100DD4
:2010EB00742EB5701574FFB56405B56502800302100DE4F564F56502100D749F2570500EFE
:20110B00E570248540085370DF754C018003754C007420B570030211B7742BB57003021176
:20112B00B1742DB5700280797442B570030211BD7443B570030211C87444B57003021415BF
:20114B007446B5700302142B7448B5700302100D7449B57003021415744AB5700302100D49
:20116B00744CB570028050744FB5700302141C7450B570030213607453B570028076745483
:20118B00B5700302100D7455B570030214217458B57003021426745AB5700302100D02147A
:2011AB002F7E0102100D75600102100D75610102100D7B0102100D75620102100DEB600A85
:2011CB00E55F14F9895F8773800DE55F24FEF57185715FA9718773857382C006C005C00446
:2011EB00C003C002120F0BD002D003D004D005D006021451E55F24FDF57385735FA97387E1
:20120B006D09876E09876F1919856D52856E53856F54856D82856E83856FF0C006C005C03C
:20122B0004C003C002121792858273858374D002D003D004D005D00674FFB56409B5650690
:20124B00857364857465EE704FC3E573956BE574956C5044E56BC39573F571E56C9574F543
:20126B007285716D85726E157174FFB571021572E56D456E601C758220C006C005C004C0DA
:20128B0003C002120F0BD002D003D004D005D00680CF85716B85726C85647185657285528E
:2012AB00828553838554F01217C7F56D856D68604FC3E4957174808572F063F08095F050F2
:2012CB003F157174FFB571021572856882C006C005C004C003C002120F0BD002D003D00434
:2012EB00D005D00685526D85536E85546F056DE4B56D02056E856D52856E53856F54809E89
:20130B00EE7003021451C3E573956BE574956C4003021451E56BC39573F573E56C9574F509
:20132B0074857371857472157374FFB573021574E5714572700302144B758220C006C00529
:20134B00C004C003C002120F0BD002D003D004D005D00680CCE55F24FDF57185715FA97163
:20136B00876D09876E09876F1919856D52856E53856F5485546974802569500575714380AB
:20138B001974A025695005757150800E74C0256950057571498003757158857182C006C069
:2013AB0005C004C003C002120F0B75823A120F0B758230120F0B758278120F0BD002D003B8
:2013CB00D004D005D0067449B5710280217450B57102801A855382C006C005C004C003C04B
:2013EB0002120F48D002D003D004D005D006855282C006C005C004C003C002120F48D002EB
:20140B00D003D004D005D006803C7A0175630A8035756308803075630A802B7563108026F6
:20142B007C018022857082C006C005C004C003C002120F0BD002D003D004D005D006800661
:20144B0085736B85746CEC6068E55F24FCFC8C5F8C018775098776098777098778191919D1
:20146B008575528576538577548578557552357553197554808552758553768554777401A0
:20148B002575F56DE43576F56E85776F856D52856E53856F548575828576838577F0121707
:2014AB00C7FC8C757003020FBD857582120F0B80C4E5637003020FBDEB603FE55F14F98943
:2014CB005F87048C75757600757700757800857552857653857754857855EA600302156E44
:2014EB008552757576007577007578008575528576538577548578558069E5626025E55F9C
:20150B0024FCFC8C5F8C0187750987760987770987781919198575528576538577548578E9
:20152B00558040E55F24FEFC8C5F8C018703098704198B75ECF5763395E0F577F5788575A8
:20154B0052857653857754857855EA7016855275855376F577F57885755285765385775471
:20156B00857855EA602AE55530E723C3E49552F575E49553F576E49554F577E49555F57883
:20158B0085755285765385775485785580027A007C01797EE4F575F576755600856382C0E6
:2015AB0006C005C004C002C001120F5FD001D002D004D005D006EC700DE556C4F573E7FBBA
:2015CB004573F7198002A7560575E4B575020576ECB40100E433FCE552455345544555708E
:2015EB00B8896A857566857667E56B456C7005756B01F56CED7043EE7040856B75856C76B1
:20160B00AB660B8B73757400C3E5739575E57495765021758220C006C005C004C002120F79
:20162B000BD002D004D005D006157574FFB57502157680CC85756B85766CEA601D75822DEC
:20164B00C006C005C004120F0BD004D005D006156B74FFB56B02156C8046E5664567604092
:20166B00E560601D75822BC006C005C004120F0BD004D005D006156B74FFB56B02156C806B
:20168B001FE561601B758220C006C005C004120F0BD004D005D006156B74FFB56B02156CB8
:2016AB00EE703C856B75856C76AA75AB76157574FFB575021576C3E5669AE5679B5041EDB8
:2016CB0060067A307B0080047A207B008A82C006C005C004120F0BD004D005D00680CAC3C8
:2016EB00E566956BE567956C500FE56BC39566F573E56C9567F574800DE4F573F5748006F4
:20170B00857573857674A96A856675856776AA75AD76157574FFB575021576EA4D602EEC66
:20172B00B40100E433FC700A09E7C4540FFD8D5680078705740F5DF556855682C006C00440
:20174B00C001120F2ED001D004D00680C1EE7003020FBDAD73AE748D038E041DBDFF011E27
:20176B00EB4C7003020FBD758220C006C005120F0BD005D00680E08F82120F0B020FBD857D
:06178B00578285588322FD
:0B1935003C4E4F20464C4F41543E00FA
:011791003225
:18179200AA82AB831217C76003A380F8C3E5829AF582E5839BF583229F
:1D17AA00E582851BF0A4C582C0F0851CF0A4D0F025F0C583851BF0A42583F58322C8
:0D00590075817E1218C0E58260030200561A
:1C17C70020F71430F6148883A88220F507E6A88375830022E280F7E49322E02231
:2017E300AAF0FBE582851BF0A4FCADF0E583851BF0A42DFDE435F0FEE582851CF0A42DFD8A
:20180300E5F03EFEE433FFEA851BF0A42EFEE5F03FFFE583851CF0A42EFEE5F03FFFE582FE
:20182300851DF0A42EFEE5F03FFFEB851BF0A42FFFEA851CF0A42FFFE583851DF0A42FFFCA
:0E184300E582851EF0A42F8EF08D838C82220C
:011851003264
:011852003263
:011853003262
:011854003261
:011855003260
:01185600325F
:01185700325E
:01185800325D
:20185900FB7A20E4FCFDFEFFE5822582F582E58333F583E5F033F5F0EB33FB4017DAE980C8
:2018790042E5822582F582E58333F583E5F033F5F0EB33FBEC33FCED33FDEE33FEEF33FFF7
:20189900EC951BED951CEE951DEF951E4013EC951BFCED951CFDEE951DFEEF951EFF438229
:0518B90001DABEEB2284
:0118BE0032F7
:0118BF0032F6
:0418C000758200220B
:0118C40032F1
:0118C50032F0
:0118C60032EF
:0118C70032EE
:00000001FF
