:04000000020059326F
:01000B0032C2
:0100130032BA
:01001B0032B2
:0300230002014A8D
:01002B0032A2
:01003300329A
:01003B003292
:03004300023F0079
:01004B003282
:03005300023F0069
:0200B200D2007A
:0300DC00020056C9
:0300560002035151
:2000DF00AC82AD83AEF0FFC3E49C74C29D74019EE49F400EEC9460ED9409EE9400EF94009D
:2000FF0050087C007DC27E017F008C828D838EF0EF120F5B75820122AD82AE83AFF07B0035
:20011F007C00C3EB955CEC955D501F2000FDD200EB2DF8EC3EF98F02888289838AF01210F3
:20013F00B9F5990BBB00DB0C80D822C0E0C082C083C007C006C0D075D0001098028035E567
:20015F00AA20E517AE22AF2374012EF522E43FF5238E8274F82FF583E599F090E698E5237C
:20017F00F00000000090E699E522F000000000E4F522F5231099028002C200D0D0D006D022
:20019F0007D083D082D0E032E582FF24F0500475823F22EF24F650088F0674572EF5822204
:2001BF0074302FF58222AF827E00EF2FFFEE33FEEF2FFFEE33FEEF24E8FCEE341EFDE5185C
:2001DF00C4540FF582C007C006C005C0041201A7AB82D004D005D006D0078C828D83EBF016
:2001FF0074022FFFE43EFEEF24E8FFEE341EFEE518540FF582C007C0061201A7AD82D006C1
:20021F00D0078F828E83EDF022751900901EE87466F0755019755100755240754CF8754DB3
:20023F0000754E01754F00758251120ABE8519187582001201C57550197551007552407550
:20025F004CF9754D00754E01754F00758251120ABE8519187582011201C5755019755100A4
:20027F00755240754CFA754D00754E01754F00758251120ABE8519187582021201C57550E5
:20029F0019755100755240754CFB754D00754E01754F00758251120ABE851918758203126F
:2002BF0001C5755019755100755240754CFC754D00754E01754F00758251120ABE851918CF
:2002DF007582041201C5755019755100755240754CFD754D00754E01754F00758251120A15
:2002FF00BE8519187582051201C5755019755100755240754CFE754D00754E01754F00756E
:20031F008251120ABE8519187582061201C5755019755100755240754CFF754D00754E0195
:20033F00754F00758251120ABE8519187582070201C590E60BE4F0C203E4F513F514F51523
:20035F00F516C202751200C201E4F510F51190E680E043E00AF09005DC12105F90E680E0BB
:20037F0053E0F7F090E600E054E74410F090E601E043E040F0120228D2E890E668E043E0EE
:20039F0008F090E65CE043E001F090E65CE043E002F090E65CE043E020F090E65CE043E0FF
:2003BF0010F090E61274A2F00000000090E61474E2F00000000090E611E053E07FF00000B7
:2003DF00000090E610E053E07FF00000000090E613E053E07FF00000000090E615E053E04D
:2003FF007FF00000000090E6917480F00000000090E6917480F0D2ACC2BCD299C298D2AF57
:20041F00300205120B22C20212060F80F375820022AF82C007120638E582D00760047582EF
:20043F000122BFB12C90E6BAE0F582120C40AE82AF838E048F05EE4F60178C828D83E0902F
:20045F00E740F090E68AE4F090E68B04F07582012275820022E5827014AD5CAE5DAF5E8DD1
:20047F00828E838FF0E4120F297582012275820022E582FF7065E55C706190E6837402F03E
:20049F007422F07416F07436F090E6047480F00000000090E6047482F00000000090E6046B
:2004BF00E4F00000000090E6917480F00000000090E6917480F00000000090E6047480F015
:2004DF000000000090E6047486F00000000090E604E4F000000000758201227582002275A3
:2004FF00820122AF82BF01067E017F0080047E007F008E8222C0E0C082C083D2025391EFC4
:20051F0090E65D7401F0D083D082D0E032C0E0C082C083C0D075D008903C01E02401F0A396
:20053F00E03400F0903C01E0FEA3E0FFBE4019BF1F16B2043004067592B8E280047592B094
:20055F00E2903C01E4F0A3F05391EF90E65D7402F0D0D0D083D082D0E032C021C0E0C0F002
:20057F00C082C083C007C006C005C004C003C002C001C000C0D075D000758200120E20535C
:20059F0091EF90E65D7410F0D0D0D000D001D002D003D004D005D006D007D083D082D0F0D4
:2005BF00D0E0D02132C021C0E0C0F0C082C083C007C006C005C004C003C002C001C000C0B7
:2005DF00D075D000758201120E205391EF90E65D7420F0D0D0D000D001D002D003D004D0FB
:1005FF0005D006D007D083D082D0F0D0E0D0213202
:0211B900000034
:1600B400E4F522F523752460752509F526F527F528F529752A086E
:20060F00E5AA20E02390E690E0FE7F0090E691E07C004FF55CEC4EF55D90F00075F0001230
:20062F00011790E6917480F022AF82BF2002800FBF21030206FABF220302075802075CC294
:20064F00E890E6B57401F090E68BE4F090E6B5F0D2E890E68BE0FFBF07F8000000007E004D
:20066F007F00EE2424FBEF3400FC7D40EE2440F582EF34E7F583E08B828C838DF0120F29D1
:20068F000EBE00010FC3EE9407EF6480948040D290002775F0401210B9FE7F00900026754B
:2006AF00F0401210B97C004207EC42068E048F057F007E0090002575F0401210B9FA7B005A
:2006CF00A8247900E84203E942028B008A01E4FAFBE84207E94206EA4205EB42048F828E1A
:2006EF00838DF0EC1200DF7582012290E6B57401F07E007F00EE2440FCEF34E7FDEE2424DC
:20070F00F9EF3400FA7B4089828A838BF01210B9F98C828D83F00EBE00010FC3EE9407EF6D
:20072F006480948040CF90E68AE4F00000000090E68B7407F00000000090E6A0E020E1F973
:11074F0090E6B5E4F07582012275820122758200224D
:201E00001201000202000040192A41540300010203010A060002FFFFFF40010009024300EB
:201E200002010080320904000001020201000524001001042402000524060001052401011B
:1F1E4000010705810340004009040100020A0000000705020200020007058602000200B0
:201E60000902430002010080320904000002020201030524001001042402000524060001B4
:201E800005240101010705810340004009040100020A000000070502024000000705860208
:031EA000400000FF
:201EA400040309040E034E0075006D00610074006F0030034F007000730069007300200024
:201EC40028004300440043002000530065007200690061006C0020004D006F0064006500E7
:201EE4002900220330003100320033003400350036003700380039006100620063006400F9
:061F04006500660000000C
:20076000858235E530252BFDE531352CFE753602903C00E4F0903C00E06004758200229060
:20078000E678E043E080F090E678E030E21090000AC006C00512105FD005D00680D7E535D6
:2007A00025E0FB90E679F090E678E020E006903C00E060F3903C00E060047582002290E6E8
:2007C00078E020E2B090E678E020E13B90E678E043E040F090E678E030E606903C00E060EE
:2007E000F3903C00E0600475820022E53614FB8B367003F5822290000AC006C00512105F40
:20080000D005D0060207757A007B00C3EA9DEB9E400302089CC3EA952BEB952C5016EA2570
:200820002DF8EB352EF9AC2F888289838CF01210B9FC801DEAC3952BF8EB952CF9E8253222
:20084000F8E93533F9AF34888289838FF01210B9FC90E679ECF00ABA00010B90E678E0207E
:20086000E006903C00E060F3903C00E060047582002290E678E030E20302077590E678E03B
:2008800020E18890E678E043E040F090E678E030E606903C00E060F37582002290E678E0DE
:2008A00043E040F090E678E030E606903C00E060F3903C00E0600475820022758201228534
:2008C000823C903C00E4F004B5370814B5380474018001E4FE903C00E06004758200227C40
:2008E000007D0090E678E043E080F090E678E030E20C90000AC00612105FD00680D7E53CFF
:2009000025E0FB90E67974014BF090E678E020E006903C00E060F3903C00E060047582005E
:200920002290E678E020E2AD90E678E020E11990E678E043E040F090E678E030E606903C59
:2009400000E060F375820022EE600890E678E043E020F090E679E0E4F53DF53E7401253D05
:20096000F8E4353EF9C3E89537E99538506590E678E020E006903C00E060F3903C00E0606E
:20098000047582002290E678E030E2030208D57402253DF8E4353EF9E8B5370CE9B538089A
:2009A00090E678E043E020F0A83DA93E053DE4B53D02053EAC3DAD3EE82539F8E9353AF9AA
:2009C000AF3B90E679E0FB888289838FF0120F2902095C90E678E020E006903C00E060F34A
:2009E000903C00E060047582002290E678E030E2030208D590E678E043E040F0EC2539FCA5
:200A0000ED353AFDAF3B90E679E08C828D838FF0120F2990E678E030E606903C00E060F3F4
:200A2000903C00E060047582002275820122858246E4F54AF54BAB3FAC40C3E54A9541E540
:200A40004B954250757A0090E678E030E4067A018C078F47EA04FFEA2447F98B02A702EF09
:200A600004FAEF2447F9E54A2543FDE54B3544FEAF45054AE4B54A02054B8D828E838FF0D3
:200A80001210B9F78A2B752C00752D47752E00752F40E4F530F531F532F533F534854682CA
:200AA000C004C003120760E582D003D0047003F582220BBB00010C020A3A75820122AF82B8
:200AC0007E0090E678E030E4067E01AD4D8D53EE04FDEE2453F9AE4CA7068D2B752C007595
:200AE0002D53752E00752F40E4F530F531F532F533F5348F82C007120760E582D007700346
:200B0000F58222854E37854F3885503985513A85523B8F821208BFE5827003F582227582A2
:020B20000122B0
:06008800E478FFF6D8FD4C
:1200CA0075560075570075586075591E755A1C755B1E9B
:200B220090E6B9E0FF24F45003020C22EF240A83F582EF241083F583E4735469227E2222DD
:200B42009322A3BAD1040B0B0C0B0C0C0B0C0B0B0B0C120C98E5826003020C3790E6A0E068
:200B620043E001F0020C37120D2CE5826003020C3790E6A0E043E001F0020C37120D9BE5D2
:200B8200826003020C3790E6A0E043E001F0020C3712042CE5826003020C37120E4A020C11
:200BA200371204FEAF8290E740EFF090E68AE4F090E68B04F0020C3790E6BAE0F582120575
:200BC20002E582707090E6A0E043E001F0806690E6BCE0FF755C55755D00755E408F82129B
:200BE2000474E582700A90E6A0E043E001F0804590E740E555F090E68AE4F090E68B04F021
:200C0200803390E6BCE0FF90E6BAE0F55C8F82120490E582701F90E6A0E043E001F0801561
:200C220090E6B9E0F582120430E582700890E6A0E043E001F090E6A0E043E080F022AF8221
:200C4200747F5FFE24F75003020C94EE240A83F582EE240D83F583E4736D71849488948C0D
:200C620094900C0C0C0C0C0C0C0C0C90E6A022EF30E7067EA27FE680047EA17FE68E828F72
:200C8200832290E6A32290E6A42290E6A52290E6A6229000002290E6B8E0FFBF8002802219
:200CA200BF81028008BF82028037020D2490E740E4F090E741F090E68AF090E68B7402F0B1
:200CC2008064E55725E0FFE556420790E740EFF090E741E4F090E68AF090E68B7402F08071
:200CE2004590E6BCE0F582120C40AE82AF838E048F05EE4F7003F582228C828D83E0FC30CB
:200D0200E0067E017F0080047E007F0090E740EEF090E741E4F090E68AF090E68B7402F0F4
:200D22008004758200227582012290E6B8E0FF6005BF0258801B90E6BAE0FFBF0105755734
:200D420000805290E6BAE0FFBF060280487582002290E6BAE0703190E6BCE0F582120C4070
:200D6200AE82AF83E0FD5305FE8E828F83EDF090E6BCE0FF30E70343071053071F90E683E6
:200D8200EFF074204FF0800D7582002290E6B9E0F5820204307582012290E6B8E0FF6005B1
:200DA200BF026E802690E6BAE0FFBF0203020E1C90E6BAE0FFBF0105755701805D90E6BAAF
:200DC200E0FFBF060280537582002290E6BAE0703C90E6BCE0F582120C40AE82AF83EE4F3D
:200DE2007003F582228E828F83E0FD4305018E828F83EDF090E6BCE0FF30E70343071053C6
:200E0200071F90E683EFF074204FF0800D7582002290E6B9E0F58202043075820122D310A0
:200E2200AF01C3C0D0E582600E75581C75591E755A60755B1E800C75586075591E755A1C56
:200E4200755B1ED0D092AF2290E6B57401F090E6BBE0FFBF01028019BF02028024BF030279
:200E6200802CBF0603020F03BF0703020F13020F207E007F1E90E6B3EFF090E6B47400F019
:200E82002290E6B3E559F090E6B4E558F0227DA47E1E7F8090E6BAE0F55C7B00EBB55C02C8
:200EA20080430B8D008E018F028D828E838FF01210B928F8E439F9880589068A0774012DB6
:200EC200F9E43EFA8F0489828A838CF01210B9F9B9030280067D007E007F00ED4E6006C3DE
:200EE200E55C9B50B7ED4E600F8D038E0490E6B3ECF090E6B4EDF02290E6A0E043E001F009
:200F0200227E127F1E90E6B3EFF090E6B47412F02290E6B3E55BF090E6B4E55AF02290E66C
:070F2200A0E043E001F02212
:200066007902E94400601B7A019011B9780175923CE493F2A308B800020592D9F4DAF27553
:0200860092FFE7
:1B0F290020F71130F6138883A88220F509F6A8837583002280FEF280F5F022C7
:203F00000205140002052C00021147000211B100020579000205C40002114400020F4F0033
:203F2000020F5100020F5200020F5300020F56000211B7000211B800020F4400020F4600B0
:203F400002114900020F4F000211430002114500021146000211480002114A000211B00023
:203F60000210B800020F4F00020F4F00020F4F00020F5000020F5400020F5700020F5900BF
:203F8000020F5500020F5800020F5A000210B700020F4700020F4900020F4B00020F4D00B2
:183FA000020F4800020F4A00020F4C00020F4E00020F45000211B6007A
:010F4400327A
:010F45003279
:010F46003278
:010F47003277
:010F48003276
:20008E007800E84400600A790075923CE4F309D8FC7801E84400600C7901903C00E4F0A306
:0400AE00D8FCD9FAA7
:010F49003275
:010F4A003274
:010F4B003273
:010F4C003272
:010F4D003271
:010F4E003270
:010F4F00326F
:010F5000326E
:010F5100326D
:010F5200326C
:010F5300326B
:010F5400326A
:010F55003269
:010F56003268
:010F57003267
:010F58003266
:010F59003265
:010F5A003264
:200F5B00D310AF01C3C0D085821A85831B85F01CF51D90E600E05418C423541F70057A019D
:200F7B00FB801C90E600E05418C423541FF9B901067802790080047804790088028903D296
:200F9B00CDD2CC8A5C755D00755E00755F009071B075F00BE4C0021210D5851A5C851B5DB6
:200FBB00851C5E851D5F12114BAC82AD83AEF0FFD0020CBC00090DBD00050EBE00010FEF70
:200FDB00C313EE13ED13FDEC13FC74FFC39CFC74FF9DFD8DCBEA60067E017F0080047E00A4
:200FFB007F00EE2CF5CAD2CAC29FD29EC29DD29C438780D299D0D092AF223098FDAF99C2BD
:20101B00987E008F828E8322AF8210990280FB8F9922AE82AF83BE0A11BF000E75820DC0EE
:20103B0007C006121023D006D0078E82C007C006121023D006D007BE0D09BF000675820AAD
:04105B00021023223A
:20105F00AE82AF8390E600E05418C423541F70057CB1FD801C90E600E05418C423541FFBA1
:20107F00BB01067A617B0180047AC27B028A048B058C5C8D5DE55C24FFFAE55D34FFFB8AB3
:18109F005C8B5DEA4B70EEEE24FFFAEF34FFFB8A068B07EA4B70DA2277
:0110B7003206
:0110B8003205
:0D00590075815F1211B2E58260030200564E
:1C10B90020F71430F6148883A88220F507E6A88375830022E280F7E49322E02246
:2010D500AAF0FBE582855CF0A4FCADF0E583855CF0A42DFDE435F0FEE582855DF0A42DFDDC
:2010F500E5F03EFEE433FFEA855CF0A42EFEE5F03FFFE583855DF0A42EFEE5F03FFFE58292
:20111500855EF0A42EFEE5F03FFFEB855CF0A42FFFEA855DF0A42FFFE583855EF0A42FFFDB
:0E113500E582855FF0A42F8EF08D838C8222E0
:011143003279
:011144003278
:011145003277
:011146003276
:011147003275
:011148003274
:011149003273
:01114A003272
:20114B00FB7A20E4FCFDFEFFE5822582F582E58333F583E5F033F5F0EB33FB4017DAE980DD
:20116B0042E5822582F582E58333F583E5F033F5F0EB33FBEC33FCED33FDEE33FEEF33FF0C
:20118B00EC955CED955DEE955EEF955F4013EC955CFCED955DFDEE955EFEEF955FFF438236
:0511AB0001DABEEB2299
:0111B000320C
:0111B100320B
:0411B2007582002220
:0111B6003206
:0111B7003205
:0111B8003204
:00000001FF
